{
  "contractName": "Exchange",
  "abi": [
    {
      "inputs": [
        {
          "internalType": "address",
          "name": "_SPOTIC",
          "type": "address"
        },
        {
          "internalType": "address",
          "name": "_tUSDT",
          "type": "address"
        },
        {
          "internalType": "address",
          "name": "_tUSDC",
          "type": "address"
        }
      ],
      "stateMutability": "nonpayable",
      "type": "constructor"
    },
    {
      "inputs": [
        {
          "internalType": "address",
          "name": "_new_owner",
          "type": "address"
        }
      ],
      "name": "setExchangeOwner",
      "outputs": [],
      "stateMutability": "nonpayable",
      "type": "function"
    },
    {
      "inputs": [],
      "name": "getExchangeOwner",
      "outputs": [
        {
          "internalType": "address",
          "name": "",
          "type": "address"
        }
      ],
      "stateMutability": "view",
      "type": "function",
      "constant": true
    },
    {
      "inputs": [],
      "name": "getTotalSupply",
      "outputs": [
        {
          "internalType": "uint256",
          "name": "",
          "type": "uint256"
        }
      ],
      "stateMutability": "view",
      "type": "function",
      "constant": true
    },
    {
      "inputs": [],
      "name": "openExchangeDapp",
      "outputs": [],
      "stateMutability": "nonpayable",
      "type": "function"
    },
    {
      "inputs": [],
      "name": "closeExchangeDapp",
      "outputs": [],
      "stateMutability": "nonpayable",
      "type": "function"
    },
    {
      "inputs": [],
      "name": "getOpenStatus",
      "outputs": [
        {
          "internalType": "bool",
          "name": "",
          "type": "bool"
        }
      ],
      "stateMutability": "view",
      "type": "function",
      "constant": true
    },
    {
      "inputs": [],
      "name": "getSeasonPeriod",
      "outputs": [
        {
          "internalType": "uint256",
          "name": "",
          "type": "uint256"
        }
      ],
      "stateMutability": "view",
      "type": "function",
      "constant": true
    },
    {
      "inputs": [],
      "name": "getHardCap",
      "outputs": [
        {
          "internalType": "uint256",
          "name": "",
          "type": "uint256"
        }
      ],
      "stateMutability": "view",
      "type": "function",
      "constant": true
    },
    {
      "inputs": [],
      "name": "getLimitedCnt",
      "outputs": [
        {
          "internalType": "uint256",
          "name": "",
          "type": "uint256"
        }
      ],
      "stateMutability": "view",
      "type": "function",
      "constant": true
    },
    {
      "inputs": [
        {
          "internalType": "uint256",
          "name": "_new_limited_cnt",
          "type": "uint256"
        }
      ],
      "name": "setLimitedCnt",
      "outputs": [],
      "stateMutability": "nonpayable",
      "type": "function"
    },
    {
      "inputs": [
        {
          "internalType": "uint256",
          "name": "_hardCap",
          "type": "uint256"
        }
      ],
      "name": "setHardCap",
      "outputs": [],
      "stateMutability": "nonpayable",
      "type": "function"
    },
    {
      "inputs": [
        {
          "internalType": "uint256",
          "name": "new_rate",
          "type": "uint256"
        }
      ],
      "name": "setExchangeRate",
      "outputs": [],
      "stateMutability": "nonpayable",
      "type": "function"
    },
    {
      "inputs": [],
      "name": "getExchangeRate",
      "outputs": [
        {
          "internalType": "uint256",
          "name": "",
          "type": "uint256"
        }
      ],
      "stateMutability": "view",
      "type": "function",
      "constant": true
    },
    {
      "inputs": [
        {
          "internalType": "uint256",
          "name": "transfer_amount",
          "type": "uint256"
        },
        {
          "internalType": "uint256",
          "name": "usdt_amount",
          "type": "uint256"
        }
      ],
      "name": "transferWithUSDT",
      "outputs": [],
      "stateMutability": "payable",
      "type": "function",
      "payable": true
    },
    {
      "inputs": [
        {
          "internalType": "uint256",
          "name": "transfer_amount",
          "type": "uint256"
        },
        {
          "internalType": "uint256",
          "name": "usdc_amount",
          "type": "uint256"
        }
      ],
      "name": "transferWithUSDC",
      "outputs": [],
      "stateMutability": "payable",
      "type": "function",
      "payable": true
    },
    {
      "inputs": [
        {
          "internalType": "uint256",
          "name": "transfer_amount",
          "type": "uint256"
        }
      ],
      "name": "transfer",
      "outputs": [],
      "stateMutability": "payable",
      "type": "function",
      "payable": true
    },
    {
      "inputs": [
        {
          "internalType": "uint256",
          "name": "retransfer_amount",
          "type": "uint256"
        }
      ],
      "name": "retransfer",
      "outputs": [],
      "stateMutability": "payable",
      "type": "function",
      "payable": true
    },
    {
      "inputs": [],
      "name": "getOpenTime",
      "outputs": [
        {
          "internalType": "uint256",
          "name": "",
          "type": "uint256"
        }
      ],
      "stateMutability": "view",
      "type": "function",
      "constant": true
    }
  ],
  "bytecode": "0x6080604052610dac600255622dc6c06003556301e13380600555610bb860065564037e11d6006007556000600a60146101000a81548160ff0219169083151502179055503480156200005057600080fd5b5060405162001b5738038062001b57833981810160405281019062000076919062000356565b42600481905550826000806101000a81548173ffffffffffffffffffffffffffffffffffffffff021916908373ffffffffffffffffffffffffffffffffffffffff16021790555033600160006101000a81548173ffffffffffffffffffffffffffffffffffffffff021916908373ffffffffffffffffffffffffffffffffffffffff16021790555082600860006101000a81548173ffffffffffffffffffffffffffffffffffffffff021916908373ffffffffffffffffffffffffffffffffffffffff16021790555080600960006101000a81548173ffffffffffffffffffffffffffffffffffffffff021916908373ffffffffffffffffffffffffffffffffffffffff16021790555081600a60006101000a81548173ffffffffffffffffffffffffffffffffffffffff021916908373ffffffffffffffffffffffffffffffffffffffff16021790555060008054906101000a900473ffffffffffffffffffffffffffffffffffffffff1673ffffffffffffffffffffffffffffffffffffffff1663331a6bf5306040518263ffffffff1660e01b81526004016200021c9190620003c3565b600060405180830381600087803b1580156200023757600080fd5b505af11580156200024c573d6000803e3d6000fd5b5050505060008054906101000a900473ffffffffffffffffffffffffffffffffffffffff1673ffffffffffffffffffffffffffffffffffffffff166340c10f19306007546040518363ffffffff1660e01b8152600401620002af929190620003fb565b600060405180830381600087803b158015620002ca57600080fd5b505af1158015620002df573d6000803e3d6000fd5b5050505050505062000428565b600080fd5b600073ffffffffffffffffffffffffffffffffffffffff82169050919050565b60006200031e82620002f1565b9050919050565b620003308162000311565b81146200033c57600080fd5b50565b600081519050620003508162000325565b92915050565b600080600060608486031215620003725762000371620002ec565b5b600062000382868287016200033f565b935050602062000395868287016200033f565b9250506040620003a8868287016200033f565b9150509250925092565b620003bd8162000311565b82525050565b6000602082019050620003da6000830184620003b2565b92915050565b6000819050919050565b620003f581620003e0565b82525050565b6000604082019050620004126000830185620003b2565b620004216020830184620003ea565b9392505050565b61171f80620004386000396000f3fe6080604052600436106101095760003560e01c80639550d51011610095578063d18d944b11610064578063d18d944b146102d5578063db068e0e146102fe578063e6aa216c14610327578063e9472f8314610352578063f598bb6f1461037d57610109565b80639550d51014610251578063be8bbeb114610268578063bf0a07bd1461027f578063c4e41b22146102aa57610109565b806358c02b72116100dc57806358c02b721461019a5780636c184236146101c5578063749e1f5f146101ee57806388be17a01461020a5780638c377c861461023557610109565b806312514bba1461010e5780632dbcb5111461012a57806346ebe48f1461014657806349b66a8014610171575b600080fd5b61012860048036038101906101239190611168565b6103a8565b005b610144600480360381019061013f9190611195565b610596565b005b34801561015257600080fd5b5061015b61082d565b60405161016891906111e4565b60405180910390f35b34801561017d57600080fd5b506101986004803603810190610193919061125d565b610837565b005b3480156101a657600080fd5b506101af61090b565b6040516101bc91906111e4565b60405180910390f35b3480156101d157600080fd5b506101ec60048036038101906101e79190611168565b610915565b005b61020860048036038101906102039190611168565b6109af565b005b34801561021657600080fd5b5061021f610b9f565b60405161022c9190611299565b60405180910390f35b61024f600480360381019061024a9190611195565b610bc9565b005b34801561025d57600080fd5b50610266610e60565b005b34801561027457600080fd5b5061027d610f0d565b005b34801561028b57600080fd5b50610294610fba565b6040516102a191906111e4565b60405180910390f35b3480156102b657600080fd5b506102bf610fc4565b6040516102cc91906111e4565b60405180910390f35b3480156102e157600080fd5b506102fc60048036038101906102f79190611168565b610fce565b005b34801561030a57600080fd5b5061032560048036038101906103209190611168565b611068565b005b34801561033357600080fd5b5061033c611102565b60405161034991906111e4565b60405180910390f35b34801561035e57600080fd5b5061036761110c565b60405161037491906112cf565b60405180910390f35b34801561038957600080fd5b50610392611123565b60405161039f91906111e4565b60405180910390f35b6000600354116103ed576040517f08c379a00000000000000000000000000000000000000000000000000000000081526004016103e490611347565b60405180910390fd5b600a60149054906101000a900460ff1661043c576040517f08c379a0000000000000000000000000000000000000000000000000000000008152600401610433906113b3565b60405180910390fd5b60055460045461044c9190611402565b421061048d576040517f08c379a0000000000000000000000000000000000000000000000000000000008152600401610484906114a4565b60405180910390fd5b806002548161049c91906114f3565b600654116104df576040517f08c379a00000000000000000000000000000000000000000000000000000000081526004016104d690611570565b60405180910390fd5b600254826104ed91906114f3565b600360008282546104fe9190611590565b9250508190555060008054906101000a900473ffffffffffffffffffffffffffffffffffffffff1673ffffffffffffffffffffffffffffffffffffffff16639a352c1e33846040518363ffffffff1660e01b81526004016105609291906115c4565b600060405180830381600087803b15801561057a57600080fd5b505af115801561058e573d6000803e3d6000fd5b505050505050565b6000600354116105db576040517f08c379a00000000000000000000000000000000000000000000000000000000081526004016105d290611347565b60405180910390fd5b600a60149054906101000a900460ff1661062a576040517f08c379a0000000000000000000000000000000000000000000000000000000008152600401610621906113b3565b60405180910390fd5b60055460045461063a9190611402565b421061067b576040517f08c379a0000000000000000000000000000000000000000000000000000000008152600401610672906114a4565b60405180910390fd5b816002548161068a91906114f3565b600654116106cd576040517f08c379a00000000000000000000000000000000000000000000000000000000081526004016106c490611570565b60405180910390fd5b82600360008282546106df9190611590565b92505081905550600a60009054906101000a900473ffffffffffffffffffffffffffffffffffffffff1673ffffffffffffffffffffffffffffffffffffffff166323b872dd3330856040518463ffffffff1660e01b8152600401610745939291906115ed565b6020604051808303816000875af1158015610764573d6000803e3d6000fd5b505050506040513d601f19601f820116820180604052508101906107889190611650565b5060008054906101000a900473ffffffffffffffffffffffffffffffffffffffff1673ffffffffffffffffffffffffffffffffffffffff1663a9059cbb33856040518363ffffffff1660e01b81526004016107e49291906115c4565b6020604051808303816000875af1158015610803573d6000803e3d6000fd5b505050506040513d601f19601f820116820180604052508101906108279190611650565b50505050565b6000600554905090565b600160009054906101000a900473ffffffffffffffffffffffffffffffffffffffff1673ffffffffffffffffffffffffffffffffffffffff163373ffffffffffffffffffffffffffffffffffffffff16146108c7576040517f08c379a00000000000000000000000000000000000000000000000000000000081526004016108be906116c9565b60405180910390fd5b80600160006101000a81548173ffffffffffffffffffffffffffffffffffffffff021916908373ffffffffffffffffffffffffffffffffffffffff16021790555050565b6000600454905090565b600160009054906101000a900473ffffffffffffffffffffffffffffffffffffffff1673ffffffffffffffffffffffffffffffffffffffff163373ffffffffffffffffffffffffffffffffffffffff16146109a5576040517f08c379a000000000000000000000000000000000000000000000000000000000815260040161099c906116c9565b60405180910390fd5b8060068190555050565b6000600354116109f4576040517f08c379a00000000000000000000000000000000000000000000000000000000081526004016109eb90611347565b60405180910390fd5b600a60149054906101000a900460ff16610a43576040517f08c379a0000000000000000000000000000000000000000000000000000000008152600401610a3a906113b3565b60405180910390fd5b600554600454610a539190611402565b4210610a94576040517f08c379a0000000000000000000000000000000000000000000000000000000008152600401610a8b906114a4565b60405180910390fd5b8060025481610aa391906114f3565b60065411610ae6576040517f08c379a0000000000000000000000000000000000000000000000000000000008152600401610add90611570565b60405180910390fd5b60025482610af491906114f3565b60036000828254610b059190611402565b9250508190555060008054906101000a900473ffffffffffffffffffffffffffffffffffffffff1673ffffffffffffffffffffffffffffffffffffffff1663776cda1c3330856040518463ffffffff1660e01b8152600401610b69939291906115ed565b600060405180830381600087803b158015610b8357600080fd5b505af1158015610b97573d6000803e3d6000fd5b505050505050565b6000600160009054906101000a900473ffffffffffffffffffffffffffffffffffffffff16905090565b600060035411610c0e576040517f08c379a0000000000000000000000000000000000000000000000000000000008152600401610c0590611347565b60405180910390fd5b600a60149054906101000a900460ff16610c5d576040517f08c379a0000000000000000000000000000000000000000000000000000000008152600401610c54906113b3565b60405180910390fd5b600554600454610c6d9190611402565b4210610cae576040517f08c379a0000000000000000000000000000000000000000000000000000000008152600401610ca5906114a4565b60405180910390fd5b8160025481610cbd91906114f3565b60065411610d00576040517f08c379a0000000000000000000000000000000000000000000000000000000008152600401610cf790611570565b60405180910390fd5b8260036000828254610d129190611590565b92505081905550600960009054906101000a900473ffffffffffffffffffffffffffffffffffffffff1673ffffffffffffffffffffffffffffffffffffffff166323b872dd3330856040518463ffffffff1660e01b8152600401610d78939291906115ed565b6020604051808303816000875af1158015610d97573d6000803e3d6000fd5b505050506040513d601f19601f82011682018060405250810190610dbb9190611650565b5060008054906101000a900473ffffffffffffffffffffffffffffffffffffffff1673ffffffffffffffffffffffffffffffffffffffff1663a9059cbb33856040518363ffffffff1660e01b8152600401610e179291906115c4565b6020604051808303816000875af1158015610e36573d6000803e3d6000fd5b505050506040513d601f19601f82011682018060405250810190610e5a9190611650565b50505050565b600160009054906101000a900473ffffffffffffffffffffffffffffffffffffffff1673ffffffffffffffffffffffffffffffffffffffff163373ffffffffffffffffffffffffffffffffffffffff1614610ef0576040517f08c379a0000000000000000000000000000000000000000000000000000000008152600401610ee7906116c9565b60405180910390fd5b6000600a60146101000a81548160ff021916908315150217905550565b600160009054906101000a900473ffffffffffffffffffffffffffffffffffffffff1673ffffffffffffffffffffffffffffffffffffffff163373ffffffffffffffffffffffffffffffffffffffff1614610f9d576040517f08c379a0000000000000000000000000000000000000000000000000000000008152600401610f94906116c9565b60405180910390fd5b6001600a60146101000a81548160ff021916908315150217905550565b6000600354905090565b6000600754905090565b600160009054906101000a900473ffffffffffffffffffffffffffffffffffffffff1673ffffffffffffffffffffffffffffffffffffffff163373ffffffffffffffffffffffffffffffffffffffff161461105e576040517f08c379a0000000000000000000000000000000000000000000000000000000008152600401611055906116c9565b60405180910390fd5b8060038190555050565b600160009054906101000a900473ffffffffffffffffffffffffffffffffffffffff1673ffffffffffffffffffffffffffffffffffffffff163373ffffffffffffffffffffffffffffffffffffffff16146110f8576040517f08c379a00000000000000000000000000000000000000000000000000000000081526004016110ef906116c9565b60405180910390fd5b8060028190555050565b6000600254905090565b6000600a60149054906101000a900460ff16905090565b6000600654905090565b600080fd5b6000819050919050565b61114581611132565b811461115057600080fd5b50565b6000813590506111628161113c565b92915050565b60006020828403121561117e5761117d61112d565b5b600061118c84828501611153565b91505092915050565b600080604083850312156111ac576111ab61112d565b5b60006111ba85828601611153565b92505060206111cb85828601611153565b9150509250929050565b6111de81611132565b82525050565b60006020820190506111f960008301846111d5565b92915050565b600073ffffffffffffffffffffffffffffffffffffffff82169050919050565b600061122a826111ff565b9050919050565b61123a8161121f565b811461124557600080fd5b50565b60008135905061125781611231565b92915050565b6000602082840312156112735761127261112d565b5b600061128184828501611248565b91505092915050565b6112938161121f565b82525050565b60006020820190506112ae600083018461128a565b92915050565b60008115159050919050565b6112c9816112b4565b82525050565b60006020820190506112e460008301846112c0565b92915050565b600082825260208201905092915050565b7f6c6f636b65642068617264206361700000000000000000000000000000000000600082015250565b6000611331600f836112ea565b915061133c826112fb565b602082019050919050565b6000602082019050818103600083015261136081611324565b9050919050565b7f636c6f73652065786368616e6765206461707000000000000000000000000000600082015250565b600061139d6013836112ea565b91506113a882611367565b602082019050919050565b600060208201905081810360008301526113cc81611390565b9050919050565b7f4e487b7100000000000000000000000000000000000000000000000000000000600052601160045260246000fd5b600061140d82611132565b915061141883611132565b9250827fffffffffffffffffffffffffffffffffffffffffffffffffffffffffffffffff0382111561144d5761144c6113d3565b5b828201905092915050565b7f736561736f6e20706572696f642077617320656e646564000000000000000000600082015250565b600061148e6017836112ea565b915061149982611458565b602082019050919050565b600060208201905081810360008301526114bd81611481565b9050919050565b7f4e487b7100000000000000000000000000000000000000000000000000000000600052601260045260246000fd5b60006114fe82611132565b915061150983611132565b925082611519576115186114c4565b5b828204905092915050565b7f6f766572666c6f77206c696d6974656420636f756e7400000000000000000000600082015250565b600061155a6016836112ea565b915061156582611524565b602082019050919050565b600060208201905081810360008301526115898161154d565b9050919050565b600061159b82611132565b91506115a683611132565b9250828210156115b9576115b86113d3565b5b828203905092915050565b60006040820190506115d9600083018561128a565b6115e660208301846111d5565b9392505050565b6000606082019050611602600083018661128a565b61160f602083018561128a565b61161c60408301846111d5565b949350505050565b61162d816112b4565b811461163857600080fd5b50565b60008151905061164a81611624565b92915050565b6000602082840312156116665761166561112d565b5b60006116748482850161163b565b91505092915050565b7f6e6f74206f776e65720000000000000000000000000000000000000000000000600082015250565b60006116b36009836112ea565b91506116be8261167d565b602082019050919050565b600060208201905081810360008301526116e2816116a6565b905091905056fea2646970667358221220bb9fda860a7988dbb14b1440602f39fa2548b5c2dfdac978d38575f10042d80164736f6c634300080b0033",
  "immutableReferences": {},
  "source": "// SPDX-License-Identifier: MIT\r\npragma solidity >=0.4.22 <0.9.0;\r\n\r\nimport \"@openzeppelin/contracts/token/ERC20/IERC20.sol\";\r\nimport \"./SPOTICTOKEN.sol\" ;\r\nimport \"./tUSDT.sol\";\r\nimport \"./tUSDC.sol\";\r\n\r\ncontract Exchange {\r\n    SPOTICTOKEN private SPOTIC;\r\n\r\n    address exchange_owner ;\r\n\r\n    uint256 exchange_rate = 3500;\r\n    uint256 hardCap = 3000000;\r\n    uint256 openTime;\r\n    uint256 seasonPeriod = 31536000;\r\n    uint256 limitedCnt = 3000;\r\n    uint256 totalSupply = 15000000000;\r\n\r\n    address _SOPOTIC_TOKEN_ADDR;\r\n    address _tUSDC_TOKEN_ADDR;\r\n    address _tUSDT_TOKEN_ADDR;\r\n\r\n    bool openedExchange = false;\r\n\r\n    constructor ( address _SPOTIC, address _tUSDT, address _tUSDC ) {\r\n        openTime = block.timestamp;\r\n\r\n        SPOTIC = SPOTICTOKEN(_SPOTIC);\r\n\r\n        exchange_owner = msg.sender ;\r\n        _SOPOTIC_TOKEN_ADDR = _SPOTIC;\r\n        _tUSDC_TOKEN_ADDR = _tUSDC;\r\n        _tUSDT_TOKEN_ADDR = _tUSDT;\r\n\r\n        SPOTIC.setOwnerAddress(address(this));\r\n        SPOTIC.mint(address(this), totalSupply);\r\n    }\r\n\r\n    function setExchangeOwner(address _new_owner) public onlyOwner {\r\n        exchange_owner = _new_owner;\r\n    }\r\n\r\n    function getExchangeOwner() external view returns(address) {\r\n        return exchange_owner;\r\n    }\r\n\r\n    function getTotalSupply() external view returns(uint256) {\r\n        return totalSupply;\r\n    }\r\n\r\n    function openExchangeDapp() public onlyOwner {\r\n        openedExchange = true;\r\n    }\r\n\r\n    function closeExchangeDapp() public onlyOwner {\r\n        openedExchange = false;\r\n    }\r\n\r\n    function getOpenStatus() external view returns(bool) {\r\n        return openedExchange;\r\n    }\r\n\r\n    function getSeasonPeriod() external view returns(uint256) {\r\n        return seasonPeriod;\r\n    }\r\n\r\n    function getHardCap() external view returns(uint256) {\r\n        return hardCap;\r\n    }\r\n\r\n    function getLimitedCnt() external view returns(uint256) {\r\n        return limitedCnt;\r\n    }\r\n\r\n    function setLimitedCnt(uint256 _new_limited_cnt) public onlyOwner {\r\n        limitedCnt = _new_limited_cnt;\r\n    }\r\n\r\n    function setHardCap(uint256 _hardCap) public onlyOwner {\r\n        hardCap = _hardCap;\r\n    }\r\n\r\n    function setExchangeRate(uint256 new_rate) public onlyOwner {\r\n        exchange_rate = new_rate;\r\n    }\r\n\r\n    function getExchangeRate() external view returns(uint256) {\r\n        return exchange_rate;\r\n    }\r\n\r\n    function transferWithUSDT(uint256 transfer_amount, uint256 usdt_amount) external isLockedHardCap isOpenExchangeDapp isFinishedSeasonPeriod isOverflowLimitedCnt(transfer_amount) payable {\r\n        hardCap -= transfer_amount;\r\n        IERC20(_tUSDT_TOKEN_ADDR).transferFrom(msg.sender, address(this), usdt_amount);\r\n        SPOTIC.transfer(msg.sender, transfer_amount);\r\n    }\r\n\r\n    function transferWithUSDC(uint256 transfer_amount, uint256 usdc_amount) external isLockedHardCap isOpenExchangeDapp isFinishedSeasonPeriod isOverflowLimitedCnt(transfer_amount) payable {\r\n        hardCap -= transfer_amount;\r\n        IERC20(_tUSDC_TOKEN_ADDR).transferFrom(msg.sender, address(this), usdc_amount);\r\n        SPOTIC.transfer(msg.sender, transfer_amount);\r\n    }\r\n\r\n    function transfer(uint256 transfer_amount) external isLockedHardCap isOpenExchangeDapp isFinishedSeasonPeriod isOverflowLimitedCnt(transfer_amount) payable {\r\n        hardCap -= transfer_amount / exchange_rate;\r\n        SPOTIC.tranferToken(msg.sender, transfer_amount);\r\n    }\r\n\r\n    function retransfer(uint256 retransfer_amount) external isLockedHardCap isOpenExchangeDapp isFinishedSeasonPeriod isOverflowLimitedCnt(retransfer_amount) payable {\r\n        hardCap += retransfer_amount / exchange_rate;\r\n        SPOTIC.retransferToken(msg.sender, address(this), retransfer_amount);\r\n    }\r\n\r\n    function getOpenTime() external view returns(uint256) {\r\n        return openTime;\r\n    }\r\n\r\n    modifier isLockedHardCap() {\r\n        require(hardCap > 0, \"locked hard cap\") ;\r\n        _;\r\n    }\r\n\r\n    modifier isOpenExchangeDapp() {\r\n        require(openedExchange, \"close exchange dapp\");\r\n        _;\r\n    }\r\n\r\n    modifier isFinishedSeasonPeriod() {\r\n        require(block.timestamp < openTime + seasonPeriod, 'season period was ended');\r\n        _;\r\n    }\r\n\r\n    modifier isOverflowLimitedCnt(uint256 transfer_amount) {\r\n        require( limitedCnt > transfer_amount / exchange_rate, 'overflow limited count' );\r\n        _;\r\n    }\r\n\r\n    modifier onlyOwner() {\r\n        require(msg.sender == exchange_owner, 'not owner');\r\n        _;\r\n    }\r\n}\r\n",
  "sourcePath": "D:\\SmartContract\\contracts\\Exchange.sol",
  "compiler": {
    "name": "solc",
    "version": "0.8.11+commit.d7f03943.Emscripten.clang"
  },
  "schemaVersion": "3.4.14",
  "updatedAt": "2023-06-01T09:51:46.729Z",
  "networkType": "ethereum",
  "devdoc": {
    "kind": "dev",
    "methods": {},
    "version": 1
  },
  "userdoc": {
    "kind": "user",
    "methods": {},
    "version": 1
  }
}