{
  "contractName": "SPOTICTOKEN",
  "abi": [
    {
      "inputs": [],
      "stateMutability": "nonpayable",
      "type": "constructor"
    },
    {
      "anonymous": false,
      "inputs": [
        {
          "indexed": true,
          "internalType": "address",
          "name": "owner",
          "type": "address"
        },
        {
          "indexed": true,
          "internalType": "address",
          "name": "spender",
          "type": "address"
        },
        {
          "indexed": false,
          "internalType": "uint256",
          "name": "value",
          "type": "uint256"
        }
      ],
      "name": "Approval",
      "type": "event"
    },
    {
      "anonymous": false,
      "inputs": [
        {
          "indexed": true,
          "internalType": "address",
          "name": "from",
          "type": "address"
        },
        {
          "indexed": true,
          "internalType": "address",
          "name": "to",
          "type": "address"
        },
        {
          "indexed": false,
          "internalType": "uint256",
          "name": "value",
          "type": "uint256"
        }
      ],
      "name": "Transfer",
      "type": "event"
    },
    {
      "inputs": [
        {
          "internalType": "address",
          "name": "owner",
          "type": "address"
        },
        {
          "internalType": "address",
          "name": "spender",
          "type": "address"
        }
      ],
      "name": "allowance",
      "outputs": [
        {
          "internalType": "uint256",
          "name": "",
          "type": "uint256"
        }
      ],
      "stateMutability": "view",
      "type": "function",
      "constant": true
    },
    {
      "inputs": [
        {
          "internalType": "address",
          "name": "spender",
          "type": "address"
        },
        {
          "internalType": "uint256",
          "name": "amount",
          "type": "uint256"
        }
      ],
      "name": "approve",
      "outputs": [
        {
          "internalType": "bool",
          "name": "",
          "type": "bool"
        }
      ],
      "stateMutability": "nonpayable",
      "type": "function"
    },
    {
      "inputs": [
        {
          "internalType": "address",
          "name": "account",
          "type": "address"
        }
      ],
      "name": "balanceOf",
      "outputs": [
        {
          "internalType": "uint256",
          "name": "",
          "type": "uint256"
        }
      ],
      "stateMutability": "view",
      "type": "function",
      "constant": true
    },
    {
      "inputs": [
        {
          "internalType": "uint256",
          "name": "amount",
          "type": "uint256"
        }
      ],
      "name": "burn",
      "outputs": [],
      "stateMutability": "nonpayable",
      "type": "function"
    },
    {
      "inputs": [
        {
          "internalType": "address",
          "name": "account",
          "type": "address"
        },
        {
          "internalType": "uint256",
          "name": "amount",
          "type": "uint256"
        }
      ],
      "name": "burnFrom",
      "outputs": [],
      "stateMutability": "nonpayable",
      "type": "function"
    },
    {
      "inputs": [],
      "name": "decimals",
      "outputs": [
        {
          "internalType": "uint8",
          "name": "",
          "type": "uint8"
        }
      ],
      "stateMutability": "view",
      "type": "function",
      "constant": true
    },
    {
      "inputs": [
        {
          "internalType": "address",
          "name": "spender",
          "type": "address"
        },
        {
          "internalType": "uint256",
          "name": "subtractedValue",
          "type": "uint256"
        }
      ],
      "name": "decreaseAllowance",
      "outputs": [
        {
          "internalType": "bool",
          "name": "",
          "type": "bool"
        }
      ],
      "stateMutability": "nonpayable",
      "type": "function"
    },
    {
      "inputs": [
        {
          "internalType": "address",
          "name": "spender",
          "type": "address"
        },
        {
          "internalType": "uint256",
          "name": "addedValue",
          "type": "uint256"
        }
      ],
      "name": "increaseAllowance",
      "outputs": [
        {
          "internalType": "bool",
          "name": "",
          "type": "bool"
        }
      ],
      "stateMutability": "nonpayable",
      "type": "function"
    },
    {
      "inputs": [],
      "name": "name",
      "outputs": [
        {
          "internalType": "string",
          "name": "",
          "type": "string"
        }
      ],
      "stateMutability": "view",
      "type": "function",
      "constant": true
    },
    {
      "inputs": [],
      "name": "symbol",
      "outputs": [
        {
          "internalType": "string",
          "name": "",
          "type": "string"
        }
      ],
      "stateMutability": "view",
      "type": "function",
      "constant": true
    },
    {
      "inputs": [],
      "name": "totalSupply",
      "outputs": [
        {
          "internalType": "uint256",
          "name": "",
          "type": "uint256"
        }
      ],
      "stateMutability": "view",
      "type": "function",
      "constant": true
    },
    {
      "inputs": [
        {
          "internalType": "address",
          "name": "to",
          "type": "address"
        },
        {
          "internalType": "uint256",
          "name": "amount",
          "type": "uint256"
        }
      ],
      "name": "transfer",
      "outputs": [
        {
          "internalType": "bool",
          "name": "",
          "type": "bool"
        }
      ],
      "stateMutability": "nonpayable",
      "type": "function"
    },
    {
      "inputs": [
        {
          "internalType": "address",
          "name": "from",
          "type": "address"
        },
        {
          "internalType": "address",
          "name": "to",
          "type": "address"
        },
        {
          "internalType": "uint256",
          "name": "amount",
          "type": "uint256"
        }
      ],
      "name": "transferFrom",
      "outputs": [
        {
          "internalType": "bool",
          "name": "",
          "type": "bool"
        }
      ],
      "stateMutability": "nonpayable",
      "type": "function"
    },
    {
      "inputs": [
        {
          "internalType": "address",
          "name": "_owner",
          "type": "address"
        }
      ],
      "name": "setOwnerAddress",
      "outputs": [],
      "stateMutability": "nonpayable",
      "type": "function"
    },
    {
      "inputs": [
        {
          "internalType": "address",
          "name": "to",
          "type": "address"
        },
        {
          "internalType": "uint256",
          "name": "amount",
          "type": "uint256"
        }
      ],
      "name": "mint",
      "outputs": [],
      "stateMutability": "nonpayable",
      "type": "function"
    },
    {
      "inputs": [
        {
          "internalType": "address",
          "name": "_to",
          "type": "address"
        },
        {
          "internalType": "uint256",
          "name": "amount",
          "type": "uint256"
        }
      ],
      "name": "tranferToken",
      "outputs": [],
      "stateMutability": "nonpayable",
      "type": "function"
    },
    {
      "inputs": [
        {
          "internalType": "address",
          "name": "_from",
          "type": "address"
        },
        {
          "internalType": "address",
          "name": "_to",
          "type": "address"
        },
        {
          "internalType": "uint256",
          "name": "amount",
          "type": "uint256"
        }
      ],
      "name": "retransferToken",
      "outputs": [],
      "stateMutability": "nonpayable",
      "type": "function"
    }
  ],
  "bytecode": "0x60806040526000600560006101000a81548173ffffffffffffffffffffffffffffffffffffffff021916908373ffffffffffffffffffffffffffffffffffffffff1602179055503480156200005357600080fd5b506040518060400160405280600b81526020017f53504f544943544f4b454e0000000000000000000000000000000000000000008152506040518060400160405280600681526020017f53504f54494300000000000000000000000000000000000000000000000000008152508160039080519060200190620000d8929190620000fa565b508060049080519060200190620000f1929190620000fa565b5050506200020f565b8280546200010890620001d9565b90600052602060002090601f0160209004810192826200012c576000855562000178565b82601f106200014757805160ff191683800117855562000178565b8280016001018555821562000178579182015b82811115620001775782518255916020019190600101906200015a565b5b5090506200018791906200018b565b5090565b5b80821115620001a65760008160009055506001016200018c565b5090565b7f4e487b7100000000000000000000000000000000000000000000000000000000600052602260045260246000fd5b60006002820490506001821680620001f257607f821691505b60208210811415620002095762000208620001aa565b5b50919050565b611d2e806200021f6000396000f3fe608060405234801561001057600080fd5b506004361061010b5760003560e01c806342966c68116100a257806395d89b411161007157806395d89b41146102b65780639a352c1e146102d4578063a457c2d7146102f0578063a9059cbb14610320578063dd62ed3e146103505761010b565b806342966c681461023257806370a082311461024e578063776cda1c1461027e57806379cc67901461029a5761010b565b8063313ce567116100de578063313ce567146101ac578063331a6bf5146101ca57806339509351146101e657806340c10f19146102165761010b565b806306fdde0314610110578063095ea7b31461012e57806318160ddd1461015e57806323b872dd1461017c575b600080fd5b610118610380565b60405161012591906111e7565b60405180910390f35b610148600480360381019061014391906112a2565b610412565b60405161015591906112fd565b60405180910390f35b610166610435565b6040516101739190611327565b60405180910390f35b61019660048036038101906101919190611342565b61043f565b6040516101a391906112fd565b60405180910390f35b6101b461046e565b6040516101c191906113b1565b60405180910390f35b6101e460048036038101906101df91906113cc565b610477565b005b61020060048036038101906101fb91906112a2565b61054c565b60405161020d91906112fd565b60405180910390f35b610230600480360381019061022b91906112a2565b610583565b005b61024c600480360381019061024791906113f9565b610609565b005b610268600480360381019061026391906113cc565b61061d565b6040516102759190611327565b60405180910390f35b61029860048036038101906102939190611342565b610665565b005b6102b460048036038101906102af91906112a2565b6106ee565b005b6102be61070e565b6040516102cb91906111e7565b60405180910390f35b6102ee60048036038101906102e991906112a2565b6107a0565b005b61030a600480360381019061030591906112a2565b610827565b60405161031791906112fd565b60405180910390f35b61033a600480360381019061033591906112a2565b61089e565b60405161034791906112fd565b60405180910390f35b61036a60048036038101906103659190611426565b6108c1565b6040516103779190611327565b60405180910390f35b60606003805461038f90611495565b80601f01602080910402602001604051908101604052809291908181526020018280546103bb90611495565b80156104085780601f106103dd57610100808354040283529160200191610408565b820191906000526020600020905b8154815290600101906020018083116103eb57829003601f168201915b5050505050905090565b60008061041d610948565b905061042a818585610950565b600191505092915050565b6000600254905090565b60008061044a610948565b9050610457858285610b1b565b610462858585610ba7565b60019150509392505050565b60006012905090565b600073ffffffffffffffffffffffffffffffffffffffff16600560009054906101000a900473ffffffffffffffffffffffffffffffffffffffff1673ffffffffffffffffffffffffffffffffffffffff1614610508576040517f08c379a00000000000000000000000000000000000000000000000000000000081526004016104ff90611513565b60405180910390fd5b80600560006101000a81548173ffffffffffffffffffffffffffffffffffffffff021916908373ffffffffffffffffffffffffffffffffffffffff16021790555050565b600080610557610948565b905061057881858561056985896108c1565b6105739190611562565b610950565b600191505092915050565b600560009054906101000a900473ffffffffffffffffffffffffffffffffffffffff1673ffffffffffffffffffffffffffffffffffffffff163373ffffffffffffffffffffffffffffffffffffffff16146105dd57600080fd5b610605826105e961046e565b600a6105f591906116eb565b836106009190611736565b610e1f565b5050565b61061a610614610948565b82610f76565b50565b60008060008373ffffffffffffffffffffffffffffffffffffffff1673ffffffffffffffffffffffffffffffffffffffff168152602001908152602001600020549050919050565b600560009054906101000a900473ffffffffffffffffffffffffffffffffffffffff1673ffffffffffffffffffffffffffffffffffffffff163373ffffffffffffffffffffffffffffffffffffffff16146106bf57600080fd5b6106e883836106cc61046e565b600a6106d891906116eb565b846106e39190611736565b61043f565b50505050565b610700826106fa610948565b83610b1b565b61070a8282610f76565b5050565b60606004805461071d90611495565b80601f016020809104026020016040519081016040528092919081815260200182805461074990611495565b80156107965780601f1061076b57610100808354040283529160200191610796565b820191906000526020600020905b81548152906001019060200180831161077957829003601f168201915b5050505050905090565b600560009054906101000a900473ffffffffffffffffffffffffffffffffffffffff1673ffffffffffffffffffffffffffffffffffffffff163373ffffffffffffffffffffffffffffffffffffffff16146107fa57600080fd5b6108228261080661046e565b600a61081291906116eb565b8361081d9190611736565b61089e565b505050565b600080610832610948565b9050600061084082866108c1565b905083811015610885576040517f08c379a000000000000000000000000000000000000000000000000000000000815260040161087c90611802565b60405180910390fd5b6108928286868403610950565b60019250505092915050565b6000806108a9610948565b90506108b6818585610ba7565b600191505092915050565b6000600160008473ffffffffffffffffffffffffffffffffffffffff1673ffffffffffffffffffffffffffffffffffffffff16815260200190815260200160002060008373ffffffffffffffffffffffffffffffffffffffff1673ffffffffffffffffffffffffffffffffffffffff16815260200190815260200160002054905092915050565b600033905090565b600073ffffffffffffffffffffffffffffffffffffffff168373ffffffffffffffffffffffffffffffffffffffff1614156109c0576040517f08c379a00000000000000000000000000000000000000000000000000000000081526004016109b790611894565b60405180910390fd5b600073ffffffffffffffffffffffffffffffffffffffff168273ffffffffffffffffffffffffffffffffffffffff161415610a30576040517f08c379a0000000000000000000000000000000000000000000000000000000008152600401610a2790611926565b60405180910390fd5b80600160008573ffffffffffffffffffffffffffffffffffffffff1673ffffffffffffffffffffffffffffffffffffffff16815260200190815260200160002060008473ffffffffffffffffffffffffffffffffffffffff1673ffffffffffffffffffffffffffffffffffffffff168152602001908152602001600020819055508173ffffffffffffffffffffffffffffffffffffffff168373ffffffffffffffffffffffffffffffffffffffff167f8c5be1e5ebec7d5bd14f71427d1e84f3dd0314c0f7b2291e5b200ac8c7c3b92583604051610b0e9190611327565b60405180910390a3505050565b6000610b2784846108c1565b90507fffffffffffffffffffffffffffffffffffffffffffffffffffffffffffffffff8114610ba15781811015610b93576040517f08c379a0000000000000000000000000000000000000000000000000000000008152600401610b8a90611992565b60405180910390fd5b610ba08484848403610950565b5b50505050565b600073ffffffffffffffffffffffffffffffffffffffff168373ffffffffffffffffffffffffffffffffffffffff161415610c17576040517f08c379a0000000000000000000000000000000000000000000000000000000008152600401610c0e90611a24565b60405180910390fd5b600073ffffffffffffffffffffffffffffffffffffffff168273ffffffffffffffffffffffffffffffffffffffff161415610c87576040517f08c379a0000000000000000000000000000000000000000000000000000000008152600401610c7e90611ab6565b60405180910390fd5b610c92838383611144565b60008060008573ffffffffffffffffffffffffffffffffffffffff1673ffffffffffffffffffffffffffffffffffffffff16815260200190815260200160002054905081811015610d18576040517f08c379a0000000000000000000000000000000000000000000000000000000008152600401610d0f90611b48565b60405180910390fd5b8181036000808673ffffffffffffffffffffffffffffffffffffffff1673ffffffffffffffffffffffffffffffffffffffff16815260200190815260200160002081905550816000808573ffffffffffffffffffffffffffffffffffffffff1673ffffffffffffffffffffffffffffffffffffffff168152602001908152602001600020600082825401925050819055508273ffffffffffffffffffffffffffffffffffffffff168473ffffffffffffffffffffffffffffffffffffffff167fddf252ad1be2c89b69c2b068fc378daa952ba7f163c4a11628f55a4df523b3ef84604051610e069190611327565b60405180910390a3610e19848484611149565b50505050565b600073ffffffffffffffffffffffffffffffffffffffff168273ffffffffffffffffffffffffffffffffffffffff161415610e8f576040517f08c379a0000000000000000000000000000000000000000000000000000000008152600401610e8690611bb4565b60405180910390fd5b610e9b60008383611144565b8060026000828254610ead9190611562565b92505081905550806000808473ffffffffffffffffffffffffffffffffffffffff1673ffffffffffffffffffffffffffffffffffffffff168152602001908152602001600020600082825401925050819055508173ffffffffffffffffffffffffffffffffffffffff16600073ffffffffffffffffffffffffffffffffffffffff167fddf252ad1be2c89b69c2b068fc378daa952ba7f163c4a11628f55a4df523b3ef83604051610f5e9190611327565b60405180910390a3610f7260008383611149565b5050565b600073ffffffffffffffffffffffffffffffffffffffff168273ffffffffffffffffffffffffffffffffffffffff161415610fe6576040517f08c379a0000000000000000000000000000000000000000000000000000000008152600401610fdd90611c46565b60405180910390fd5b610ff282600083611144565b60008060008473ffffffffffffffffffffffffffffffffffffffff1673ffffffffffffffffffffffffffffffffffffffff16815260200190815260200160002054905081811015611078576040517f08c379a000000000000000000000000000000000000000000000000000000000815260040161106f90611cd8565b60405180910390fd5b8181036000808573ffffffffffffffffffffffffffffffffffffffff1673ffffffffffffffffffffffffffffffffffffffff1681526020019081526020016000208190555081600260008282540392505081905550600073ffffffffffffffffffffffffffffffffffffffff168373ffffffffffffffffffffffffffffffffffffffff167fddf252ad1be2c89b69c2b068fc378daa952ba7f163c4a11628f55a4df523b3ef8460405161112b9190611327565b60405180910390a361113f83600084611149565b505050565b505050565b505050565b600081519050919050565b600082825260208201905092915050565b60005b8381101561118857808201518184015260208101905061116d565b83811115611197576000848401525b50505050565b6000601f19601f8301169050919050565b60006111b98261114e565b6111c38185611159565b93506111d381856020860161116a565b6111dc8161119d565b840191505092915050565b6000602082019050818103600083015261120181846111ae565b905092915050565b600080fd5b600073ffffffffffffffffffffffffffffffffffffffff82169050919050565b60006112398261120e565b9050919050565b6112498161122e565b811461125457600080fd5b50565b60008135905061126681611240565b92915050565b6000819050919050565b61127f8161126c565b811461128a57600080fd5b50565b60008135905061129c81611276565b92915050565b600080604083850312156112b9576112b8611209565b5b60006112c785828601611257565b92505060206112d88582860161128d565b9150509250929050565b60008115159050919050565b6112f7816112e2565b82525050565b600060208201905061131260008301846112ee565b92915050565b6113218161126c565b82525050565b600060208201905061133c6000830184611318565b92915050565b60008060006060848603121561135b5761135a611209565b5b600061136986828701611257565b935050602061137a86828701611257565b925050604061138b8682870161128d565b9150509250925092565b600060ff82169050919050565b6113ab81611395565b82525050565b60006020820190506113c660008301846113a2565b92915050565b6000602082840312156113e2576113e1611209565b5b60006113f084828501611257565b91505092915050565b60006020828403121561140f5761140e611209565b5b600061141d8482850161128d565b91505092915050565b6000806040838503121561143d5761143c611209565b5b600061144b85828601611257565b925050602061145c85828601611257565b9150509250929050565b7f4e487b7100000000000000000000000000000000000000000000000000000000600052602260045260246000fd5b600060028204905060018216806114ad57607f821691505b602082108114156114c1576114c0611466565b5b50919050565b7f63616e2774206368616e6765206f776e65722061646472657373000000000000600082015250565b60006114fd601a83611159565b9150611508826114c7565b602082019050919050565b6000602082019050818103600083015261152c816114f0565b9050919050565b7f4e487b7100000000000000000000000000000000000000000000000000000000600052601160045260246000fd5b600061156d8261126c565b91506115788361126c565b9250827fffffffffffffffffffffffffffffffffffffffffffffffffffffffffffffffff038211156115ad576115ac611533565b5b828201905092915050565b60008160011c9050919050565b6000808291508390505b600185111561160f578086048111156115eb576115ea611533565b5b60018516156115fa5780820291505b8081029050611608856115b8565b94506115cf565b94509492505050565b60008261162857600190506116e4565b8161163657600090506116e4565b816001811461164c576002811461165657611685565b60019150506116e4565b60ff84111561166857611667611533565b5b8360020a91508482111561167f5761167e611533565b5b506116e4565b5060208310610133831016604e8410600b84101617156116ba5782820a9050838111156116b5576116b4611533565b5b6116e4565b6116c784848460016115c5565b925090508184048111156116de576116dd611533565b5b81810290505b9392505050565b60006116f68261126c565b915061170183611395565b925061172e7fffffffffffffffffffffffffffffffffffffffffffffffffffffffffffffffff8484611618565b905092915050565b60006117418261126c565b915061174c8361126c565b9250817fffffffffffffffffffffffffffffffffffffffffffffffffffffffffffffffff048311821515161561178557611784611533565b5b828202905092915050565b7f45524332303a2064656372656173656420616c6c6f77616e63652062656c6f7760008201527f207a65726f000000000000000000000000000000000000000000000000000000602082015250565b60006117ec602583611159565b91506117f782611790565b604082019050919050565b6000602082019050818103600083015261181b816117df565b9050919050565b7f45524332303a20617070726f76652066726f6d20746865207a65726f2061646460008201527f7265737300000000000000000000000000000000000000000000000000000000602082015250565b600061187e602483611159565b915061188982611822565b604082019050919050565b600060208201905081810360008301526118ad81611871565b9050919050565b7f45524332303a20617070726f766520746f20746865207a65726f20616464726560008201527f7373000000000000000000000000000000000000000000000000000000000000602082015250565b6000611910602283611159565b915061191b826118b4565b604082019050919050565b6000602082019050818103600083015261193f81611903565b9050919050565b7f45524332303a20696e73756666696369656e7420616c6c6f77616e6365000000600082015250565b600061197c601d83611159565b915061198782611946565b602082019050919050565b600060208201905081810360008301526119ab8161196f565b9050919050565b7f45524332303a207472616e736665722066726f6d20746865207a65726f20616460008201527f6472657373000000000000000000000000000000000000000000000000000000602082015250565b6000611a0e602583611159565b9150611a19826119b2565b604082019050919050565b60006020820190508181036000830152611a3d81611a01565b9050919050565b7f45524332303a207472616e7366657220746f20746865207a65726f206164647260008201527f6573730000000000000000000000000000000000000000000000000000000000602082015250565b6000611aa0602383611159565b9150611aab82611a44565b604082019050919050565b60006020820190508181036000830152611acf81611a93565b9050919050565b7f45524332303a207472616e7366657220616d6f756e742065786365656473206260008201527f616c616e63650000000000000000000000000000000000000000000000000000602082015250565b6000611b32602683611159565b9150611b3d82611ad6565b604082019050919050565b60006020820190508181036000830152611b6181611b25565b9050919050565b7f45524332303a206d696e7420746f20746865207a65726f206164647265737300600082015250565b6000611b9e601f83611159565b9150611ba982611b68565b602082019050919050565b60006020820190508181036000830152611bcd81611b91565b9050919050565b7f45524332303a206275726e2066726f6d20746865207a65726f2061646472657360008201527f7300000000000000000000000000000000000000000000000000000000000000602082015250565b6000611c30602183611159565b9150611c3b82611bd4565b604082019050919050565b60006020820190508181036000830152611c5f81611c23565b9050919050565b7f45524332303a206275726e20616d6f756e7420657863656564732062616c616e60008201527f6365000000000000000000000000000000000000000000000000000000000000602082015250565b6000611cc2602283611159565b9150611ccd82611c66565b604082019050919050565b60006020820190508181036000830152611cf181611cb5565b905091905056fea264697066735822122033773c536bea1cdfac8af5f4a2d3808c620157141df4fe898030e14232f5b45c64736f6c634300080b0033",
  "immutableReferences": {},
  "source": "// SPDX-License-Identifier: MIT\r\npragma solidity >=0.4.22 <0.9.0;\r\n\r\nimport \"@openzeppelin/contracts/token/ERC20/ERC20.sol\";\r\nimport \"@openzeppelin/contracts/token/ERC20/extensions/ERC20Burnable.sol\";\r\n\r\ncontract SPOTICTOKEN is ERC20, ERC20Burnable {\r\n    address owner = address(0);\r\n\r\n    constructor() ERC20(\"SPOTICTOKEN\", \"SPOTIC\") {\r\n    }\r\n\r\n    function setOwnerAddress(address _owner) public {\r\n        require(owner == address(0), \"can't change owner address\") ;\r\n\r\n        owner = _owner;\r\n    }\r\n\r\n    function mint(address to, uint256 amount) public isOwner {\r\n        _mint(to, amount * 10 ** decimals());\r\n    }\r\n\r\n    function tranferToken(address _to, uint256 amount) public isOwner {\r\n        transfer(_to,  amount * 10 ** decimals());\r\n    }\r\n\r\n    function retransferToken(address _from, address _to, uint256 amount) public isOwner {\r\n        transferFrom(_from, _to, amount * 10 ** decimals());\r\n    }\r\n\r\n    modifier isOwner {\r\n        require(msg.sender == owner);\r\n        _;\r\n    }\r\n}",
  "sourcePath": "D:\\SmartContract\\contracts\\SPOTICTOKEN.sol",
  "compiler": {
    "name": "solc",
    "version": "0.8.11+commit.d7f03943.Emscripten.clang"
  },
  "schemaVersion": "3.4.14",
  "updatedAt": "2023-06-01T09:51:46.735Z",
  "networkType": "ethereum",
  "devdoc": {
    "kind": "dev",
    "methods": {
      "allowance(address,address)": {
        "details": "See {IERC20-allowance}."
      },
      "approve(address,uint256)": {
        "details": "See {IERC20-approve}. NOTE: If `amount` is the maximum `uint256`, the allowance is not updated on `transferFrom`. This is semantically equivalent to an infinite approval. Requirements: - `spender` cannot be the zero address."
      },
      "balanceOf(address)": {
        "details": "See {IERC20-balanceOf}."
      },
      "burn(uint256)": {
        "details": "Destroys `amount` tokens from the caller. See {ERC20-_burn}."
      },
      "burnFrom(address,uint256)": {
        "details": "Destroys `amount` tokens from `account`, deducting from the caller's allowance. See {ERC20-_burn} and {ERC20-allowance}. Requirements: - the caller must have allowance for ``accounts``'s tokens of at least `amount`."
      },
      "decimals()": {
        "details": "Returns the number of decimals used to get its user representation. For example, if `decimals` equals `2`, a balance of `505` tokens should be displayed to a user as `5.05` (`505 / 10 ** 2`). Tokens usually opt for a value of 18, imitating the relationship between Ether and Wei. This is the default value returned by this function, unless it's overridden. NOTE: This information is only used for _display_ purposes: it in no way affects any of the arithmetic of the contract, including {IERC20-balanceOf} and {IERC20-transfer}."
      },
      "decreaseAllowance(address,uint256)": {
        "details": "Atomically decreases the allowance granted to `spender` by the caller. This is an alternative to {approve} that can be used as a mitigation for problems described in {IERC20-approve}. Emits an {Approval} event indicating the updated allowance. Requirements: - `spender` cannot be the zero address. - `spender` must have allowance for the caller of at least `subtractedValue`."
      },
      "increaseAllowance(address,uint256)": {
        "details": "Atomically increases the allowance granted to `spender` by the caller. This is an alternative to {approve} that can be used as a mitigation for problems described in {IERC20-approve}. Emits an {Approval} event indicating the updated allowance. Requirements: - `spender` cannot be the zero address."
      },
      "name()": {
        "details": "Returns the name of the token."
      },
      "symbol()": {
        "details": "Returns the symbol of the token, usually a shorter version of the name."
      },
      "totalSupply()": {
        "details": "See {IERC20-totalSupply}."
      },
      "transfer(address,uint256)": {
        "details": "See {IERC20-transfer}. Requirements: - `to` cannot be the zero address. - the caller must have a balance of at least `amount`."
      },
      "transferFrom(address,address,uint256)": {
        "details": "See {IERC20-transferFrom}. Emits an {Approval} event indicating the updated allowance. This is not required by the EIP. See the note at the beginning of {ERC20}. NOTE: Does not update the allowance if the current allowance is the maximum `uint256`. Requirements: - `from` and `to` cannot be the zero address. - `from` must have a balance of at least `amount`. - the caller must have allowance for ``from``'s tokens of at least `amount`."
      }
    },
    "version": 1
  },
  "userdoc": {
    "kind": "user",
    "methods": {},
    "version": 1
  }
}